{
  "contractName": "TakaPair",
  "abi": [
    {
      "inputs": [],
      "stateMutability": "nonpayable",
      "type": "constructor"
    },
    {
      "anonymous": false,
      "inputs": [
        {
          "indexed": true,
          "internalType": "address",
          "name": "owner",
          "type": "address"
        },
        {
          "indexed": true,
          "internalType": "address",
          "name": "spender",
          "type": "address"
        },
        {
          "indexed": false,
          "internalType": "uint256",
          "name": "value",
          "type": "uint256"
        }
      ],
      "name": "Approval",
      "type": "event"
    },
    {
      "anonymous": false,
      "inputs": [
        {
          "indexed": true,
          "internalType": "address",
          "name": "sender",
          "type": "address"
        },
        {
          "indexed": false,
          "internalType": "uint256",
          "name": "amountA",
          "type": "uint256"
        },
        {
          "indexed": false,
          "internalType": "uint256",
          "name": "amountB",
          "type": "uint256"
        },
        {
          "indexed": true,
          "internalType": "address",
          "name": "to",
          "type": "address"
        }
      ],
      "name": "Burn",
      "type": "event"
    },
    {
      "anonymous": false,
      "inputs": [
        {
          "indexed": true,
          "internalType": "address",
          "name": "sender",
          "type": "address"
        },
        {
          "indexed": false,
          "internalType": "uint256",
          "name": "amountA",
          "type": "uint256"
        },
        {
          "indexed": false,
          "internalType": "uint256",
          "name": "amountB",
          "type": "uint256"
        }
      ],
      "name": "Mint",
      "type": "event"
    },
    {
      "anonymous": false,
      "inputs": [
        {
          "indexed": true,
          "internalType": "address",
          "name": "sender",
          "type": "address"
        },
        {
          "indexed": false,
          "internalType": "uint256",
          "name": "amountA_In",
          "type": "uint256"
        },
        {
          "indexed": false,
          "internalType": "uint256",
          "name": "amountB_IN",
          "type": "uint256"
        },
        {
          "indexed": false,
          "internalType": "uint256",
          "name": "amountA_Out",
          "type": "uint256"
        },
        {
          "indexed": false,
          "internalType": "uint256",
          "name": "amountB_Out",
          "type": "uint256"
        },
        {
          "indexed": true,
          "internalType": "address",
          "name": "to",
          "type": "address"
        }
      ],
      "name": "Swap",
      "type": "event"
    },
    {
      "anonymous": false,
      "inputs": [
        {
          "indexed": false,
          "internalType": "uint112",
          "name": "reserveA",
          "type": "uint112"
        },
        {
          "indexed": false,
          "internalType": "uint112",
          "name": "reserveB",
          "type": "uint112"
        }
      ],
      "name": "Sync",
      "type": "event"
    },
    {
      "anonymous": false,
      "inputs": [
        {
          "indexed": true,
          "internalType": "address",
          "name": "from",
          "type": "address"
        },
        {
          "indexed": true,
          "internalType": "address",
          "name": "to",
          "type": "address"
        },
        {
          "indexed": false,
          "internalType": "uint256",
          "name": "value",
          "type": "uint256"
        }
      ],
      "name": "Transfer",
      "type": "event"
    },
    {
      "inputs": [],
      "name": "DOMAIN_SEPARATOR",
      "outputs": [
        {
          "internalType": "bytes32",
          "name": "",
          "type": "bytes32"
        }
      ],
      "stateMutability": "view",
      "type": "function"
    },
    {
      "inputs": [],
      "name": "MINIMUM_LIQUIDITY",
      "outputs": [
        {
          "internalType": "uint256",
          "name": "",
          "type": "uint256"
        }
      ],
      "stateMutability": "view",
      "type": "function"
    },
    {
      "inputs": [],
      "name": "PERMIT_TYPEHASH",
      "outputs": [
        {
          "internalType": "bytes32",
          "name": "",
          "type": "bytes32"
        }
      ],
      "stateMutability": "view",
      "type": "function"
    },
    {
      "inputs": [
        {
          "internalType": "address",
          "name": "",
          "type": "address"
        },
        {
          "internalType": "address",
          "name": "",
          "type": "address"
        }
      ],
      "name": "allowance",
      "outputs": [
        {
          "internalType": "uint256",
          "name": "",
          "type": "uint256"
        }
      ],
      "stateMutability": "view",
      "type": "function"
    },
    {
      "inputs": [
        {
          "internalType": "address",
          "name": "spender",
          "type": "address"
        },
        {
          "internalType": "uint256",
          "name": "value",
          "type": "uint256"
        }
      ],
      "name": "approve",
      "outputs": [
        {
          "internalType": "bool",
          "name": "",
          "type": "bool"
        }
      ],
      "stateMutability": "nonpayable",
      "type": "function"
    },
    {
      "inputs": [
        {
          "internalType": "address",
          "name": "",
          "type": "address"
        }
      ],
      "name": "balanceOf",
      "outputs": [
        {
          "internalType": "uint256",
          "name": "",
          "type": "uint256"
        }
      ],
      "stateMutability": "view",
      "type": "function"
    },
    {
      "inputs": [],
      "name": "decimals",
      "outputs": [
        {
          "internalType": "uint8",
          "name": "",
          "type": "uint8"
        }
      ],
      "stateMutability": "view",
      "type": "function"
    },
    {
      "inputs": [],
      "name": "factory",
      "outputs": [
        {
          "internalType": "address",
          "name": "",
          "type": "address"
        }
      ],
      "stateMutability": "view",
      "type": "function"
    },
    {
      "inputs": [],
      "name": "kLast",
      "outputs": [
        {
          "internalType": "uint256",
          "name": "",
          "type": "uint256"
        }
      ],
      "stateMutability": "view",
      "type": "function"
    },
    {
      "inputs": [],
      "name": "name",
      "outputs": [
        {
          "internalType": "string",
          "name": "",
          "type": "string"
        }
      ],
      "stateMutability": "view",
      "type": "function"
    },
    {
      "inputs": [
        {
          "internalType": "address",
          "name": "",
          "type": "address"
        }
      ],
      "name": "nonces",
      "outputs": [
        {
          "internalType": "uint256",
          "name": "",
          "type": "uint256"
        }
      ],
      "stateMutability": "view",
      "type": "function"
    },
    {
      "inputs": [
        {
          "internalType": "address",
          "name": "owner",
          "type": "address"
        },
        {
          "internalType": "address",
          "name": "spender",
          "type": "address"
        },
        {
          "internalType": "uint256",
          "name": "value",
          "type": "uint256"
        },
        {
          "internalType": "uint256",
          "name": "deadline",
          "type": "uint256"
        },
        {
          "internalType": "uint8",
          "name": "v",
          "type": "uint8"
        },
        {
          "internalType": "bytes32",
          "name": "r",
          "type": "bytes32"
        },
        {
          "internalType": "bytes32",
          "name": "s",
          "type": "bytes32"
        }
      ],
      "name": "permit",
      "outputs": [],
      "stateMutability": "nonpayable",
      "type": "function"
    },
    {
      "inputs": [],
      "name": "priceA_CumulativeLast",
      "outputs": [
        {
          "internalType": "uint256",
          "name": "",
          "type": "uint256"
        }
      ],
      "stateMutability": "view",
      "type": "function"
    },
    {
      "inputs": [],
      "name": "priceB_CumulativeLast",
      "outputs": [
        {
          "internalType": "uint256",
          "name": "",
          "type": "uint256"
        }
      ],
      "stateMutability": "view",
      "type": "function"
    },
    {
      "inputs": [],
      "name": "symbol",
      "outputs": [
        {
          "internalType": "string",
          "name": "",
          "type": "string"
        }
      ],
      "stateMutability": "view",
      "type": "function"
    },
    {
      "inputs": [],
      "name": "tokenA",
      "outputs": [
        {
          "internalType": "address",
          "name": "",
          "type": "address"
        }
      ],
      "stateMutability": "view",
      "type": "function"
    },
    {
      "inputs": [],
      "name": "tokenB",
      "outputs": [
        {
          "internalType": "address",
          "name": "",
          "type": "address"
        }
      ],
      "stateMutability": "view",
      "type": "function"
    },
    {
      "inputs": [],
      "name": "totalSupply",
      "outputs": [
        {
          "internalType": "uint256",
          "name": "",
          "type": "uint256"
        }
      ],
      "stateMutability": "view",
      "type": "function"
    },
    {
      "inputs": [
        {
          "internalType": "address",
          "name": "to",
          "type": "address"
        },
        {
          "internalType": "uint256",
          "name": "value",
          "type": "uint256"
        }
      ],
      "name": "transfer",
      "outputs": [
        {
          "internalType": "bool",
          "name": "",
          "type": "bool"
        }
      ],
      "stateMutability": "nonpayable",
      "type": "function"
    },
    {
      "inputs": [
        {
          "internalType": "address",
          "name": "from",
          "type": "address"
        },
        {
          "internalType": "address",
          "name": "to",
          "type": "address"
        },
        {
          "internalType": "uint256",
          "name": "value",
          "type": "uint256"
        }
      ],
      "name": "transferFrom",
      "outputs": [
        {
          "internalType": "bool",
          "name": "",
          "type": "bool"
        }
      ],
      "stateMutability": "nonpayable",
      "type": "function"
    },
    {
      "inputs": [],
      "name": "getReserves",
      "outputs": [
        {
          "internalType": "uint112",
          "name": "_reserveA",
          "type": "uint112"
        },
        {
          "internalType": "uint112",
          "name": "_reserveB",
          "type": "uint112"
        },
        {
          "internalType": "uint32",
          "name": "_blockTimestampLast",
          "type": "uint32"
        }
      ],
      "stateMutability": "view",
      "type": "function"
    },
    {
      "inputs": [
        {
          "internalType": "address",
          "name": "_tokenA",
          "type": "address"
        },
        {
          "internalType": "address",
          "name": "_tokenB",
          "type": "address"
        }
      ],
      "name": "initialize",
      "outputs": [],
      "stateMutability": "nonpayable",
      "type": "function"
    },
    {
      "inputs": [
        {
          "internalType": "address",
          "name": "to",
          "type": "address"
        }
      ],
      "name": "mint",
      "outputs": [
        {
          "internalType": "uint256",
          "name": "liquidity",
          "type": "uint256"
        }
      ],
      "stateMutability": "nonpayable",
      "type": "function"
    },
    {
      "inputs": [
        {
          "internalType": "address",
          "name": "to",
          "type": "address"
        }
      ],
      "name": "burn",
      "outputs": [
        {
          "internalType": "uint256",
          "name": "amountA",
          "type": "uint256"
        },
        {
          "internalType": "uint256",
          "name": "amountB",
          "type": "uint256"
        }
      ],
      "stateMutability": "nonpayable",
      "type": "function"
    },
    {
      "inputs": [
        {
          "internalType": "uint256",
          "name": "amountA_Out",
          "type": "uint256"
        },
        {
          "internalType": "uint256",
          "name": "amountB_Out",
          "type": "uint256"
        },
        {
          "internalType": "address",
          "name": "to",
          "type": "address"
        },
        {
          "internalType": "bytes",
          "name": "data",
          "type": "bytes"
        }
      ],
      "name": "swap",
      "outputs": [],
      "stateMutability": "nonpayable",
      "type": "function"
    },
    {
      "inputs": [
        {
          "internalType": "address",
          "name": "to",
          "type": "address"
        }
      ],
      "name": "skim",
      "outputs": [],
      "stateMutability": "nonpayable",
      "type": "function"
    },
    {
      "inputs": [],
      "name": "sync",
      "outputs": [],
      "stateMutability": "nonpayable",
      "type": "function"
    }
  ],
  "bytecode": "0x60806040526001600c553480156200001657600080fd5b5060004690507f8b73c3c69bb8fe3d512ecc4cf759cc79239f7b179b0ffacaa9a75d522b39400f6040518060400160405280600581526020017f54616b6120000000000000000000000000000000000000000000000000000000815250805190602001206040518060400160405280600181526020017f3100000000000000000000000000000000000000000000000000000000000000815250805190602001208330604051602001620000cf959493929190620001ae565b604051602081830303815290604052805190602001206003819055505033600560006101000a81548173ffffffffffffffffffffffffffffffffffffffff021916908373ffffffffffffffffffffffffffffffffffffffff1602179055506200020b565b6000819050919050565b620001488162000133565b82525050565b6000819050919050565b62000163816200014e565b82525050565b600073ffffffffffffffffffffffffffffffffffffffff82169050919050565b6000620001968262000169565b9050919050565b620001a88162000189565b82525050565b600060a082019050620001c560008301886200013d565b620001d460208301876200013d565b620001e360408301866200013d565b620001f2606083018562000158565b6200020160808301846200019d565b9695505050505050565b614009806200021b6000396000f3fe608060405234801561001057600080fd5b50600436106101a95760003560e01c80636a627842116100f9578063b486ae4b11610097578063c45a015511610071578063c45a0155146104db578063d505accf146104f9578063dd62ed3e14610515578063fff6cae914610545576101a9565b8063b486ae4b14610483578063ba9a7a56146104a1578063bc25cf77146104bf576101a9565b80637ecebe00116100d35780637ecebe00146103d457806389afcb441461040457806395d89b4114610435578063a9059cbb14610453576101a9565b80636a6278421461035657806370a08231146103865780637464fc3d146103b6576101a9565b806323b872dd11610166578063313ce56711610140578063313ce567146102e05780633644e515146102fe578063485cc9551461031c5780635f64b55b14610338576101a9565b806323b872dd1461027457806326fbad49146102a457806330adf81f146102c2576101a9565b8063022c0d9f146101ae57806306fdde03146101ca5780630902f1ac146101e8578063095ea7b3146102085780630fc63d101461023857806318160ddd14610256575b600080fd5b6101c860048036038101906101c39190612d5b565b61054f565b005b6101d2610ba1565b6040516101df9190612e7c565b60405180910390f35b6101f0610bda565b6040516101ff93929190612ee6565b60405180910390f35b610222600480360381019061021d9190612f1d565b610c37565b60405161022f9190612f78565b60405180910390f35b610240610c4e565b60405161024d9190612fa2565b60405180910390f35b61025e610c74565b60405161026b9190612fcc565b60405180910390f35b61028e60048036038101906102899190612fe7565b610c7a565b60405161029b9190612f78565b60405180910390f35b6102ac610e45565b6040516102b99190612fcc565b60405180910390f35b6102ca610e4b565b6040516102d79190613053565b60405180910390f35b6102e8610e72565b6040516102f5919061308a565b60405180910390f35b610306610e77565b6040516103139190613053565b60405180910390f35b610336600480360381019061033191906130a5565b610e7d565b005b610340610f93565b60405161034d9190612fa2565b60405180910390f35b610370600480360381019061036b91906130e5565b610fb9565b60405161037d9190612fcc565b60405180910390f35b6103a0600480360381019061039b91906130e5565b6113a3565b6040516103ad9190612fcc565b60405180910390f35b6103be6113bb565b6040516103cb9190612fcc565b60405180910390f35b6103ee60048036038101906103e991906130e5565b6113c1565b6040516103fb9190612fcc565b60405180910390f35b61041e600480360381019061041991906130e5565b6113d9565b60405161042c929190613112565b60405180910390f35b61043d611883565b60405161044a9190612e7c565b60405180910390f35b61046d60048036038101906104689190612f1d565b6118bc565b60405161047a9190612f78565b60405180910390f35b61048b6118d3565b6040516104989190612fcc565b60405180910390f35b6104a96118d9565b6040516104b69190612fcc565b60405180910390f35b6104d960048036038101906104d491906130e5565b6118df565b005b6104e3611b0b565b6040516104f09190612fa2565b60405180910390f35b610513600480360381019061050e9190613193565b611b31565b005b61052f600480360381019061052a91906130a5565b611d59565b60405161053c9190612fcc565b60405180910390f35b61054d611d7e565b005b6001600c5414610594576040517f08c379a000000000000000000000000000000000000000000000000000000000815260040161058b90613281565b60405180910390fd5b6000600c8190555060008511806105ab5750600084115b6105ea576040517f08c379a00000000000000000000000000000000000000000000000000000000081526004016105e1906132ed565b60405180910390fd5b6000806105f5610bda565b5091509150816dffffffffffffffffffffffffffff16871080156106285750806dffffffffffffffffffffffffffff1686105b610667576040517f08c379a000000000000000000000000000000000000000000000000000000000815260040161065e90613359565b60405180910390fd5b6000806000600660009054906101000a900473ffffffffffffffffffffffffffffffffffffffff1690506000600760009054906101000a900473ffffffffffffffffffffffffffffffffffffffff1690508173ffffffffffffffffffffffffffffffffffffffff168973ffffffffffffffffffffffffffffffffffffffff161415801561072057508073ffffffffffffffffffffffffffffffffffffffff168973ffffffffffffffffffffffffffffffffffffffff1614155b61075f576040517f08c379a0000000000000000000000000000000000000000000000000000000008152600401610756906133c5565b60405180910390fd5b60008b111561077457610773828a8d611f4f565b5b60008a111561078957610788818a8c611f4f565b5b6000888890501115610809578873ffffffffffffffffffffffffffffffffffffffff1663afce41a7338d8d8c8c6040518663ffffffff1660e01b81526004016107d6959493929190613432565b600060405180830381600087803b1580156107f057600080fd5b505af1158015610804573d6000803e3d6000fd5b505050505b8173ffffffffffffffffffffffffffffffffffffffff166370a08231306040518263ffffffff1660e01b81526004016108429190612fa2565b602060405180830381865afa15801561085f573d6000803e3d6000fd5b505050506040513d601f19601f820116820180604052508101906108839190613495565b93508073ffffffffffffffffffffffffffffffffffffffff166370a08231306040518263ffffffff1660e01b81526004016108be9190612fa2565b602060405180830381865afa1580156108db573d6000803e3d6000fd5b505050506040513d601f19601f820116820180604052508101906108ff9190613495565b92505050600089856dffffffffffffffffffffffffffff1661092191906134f1565b831161092e576000610956565b89856dffffffffffffffffffffffffffff1661094a91906134f1565b8361095591906134f1565b5b9050600089856dffffffffffffffffffffffffffff1661097691906134f1565b83116109835760006109ab565b89856dffffffffffffffffffffffffffff1661099f91906134f1565b836109aa91906134f1565b5b905060008211806109bc5750600081115b6109fb576040517f08c379a00000000000000000000000000000000000000000000000000000000081526004016109f290613571565b60405180910390fd5b6000610a37610a146003856120d990919063ffffffff16565b610a296103e8886120d990919063ffffffff16565b61214690919063ffffffff16565b90506000610a75610a526003856120d990919063ffffffff16565b610a676103e8886120d990919063ffffffff16565b61214690919063ffffffff16565b9050610abf620f4240610ab1896dffffffffffffffffffffffffffff168b6dffffffffffffffffffffffffffff166120d990919063ffffffff16565b6120d990919063ffffffff16565b610ad282846120d990919063ffffffff16565b1015610b13576040517f08c379a0000000000000000000000000000000000000000000000000000000008152600401610b0a906135dd565b60405180910390fd5b5050610b218484888861219f565b8873ffffffffffffffffffffffffffffffffffffffff163373ffffffffffffffffffffffffffffffffffffffff167fd78ad95fa46c994b6551d0da85fc275fe613ce37657fb8d5e3d130840159d82284848f8f604051610b8494939291906135fd565b60405180910390a35050505050506001600c819055505050505050565b6040518060400160405280600581526020017f54616b612000000000000000000000000000000000000000000000000000000081525081565b6000806000600860009054906101000a90046dffffffffffffffffffffffffffff1692506008600e9054906101000a90046dffffffffffffffffffffffffffff1691506008601c9054906101000a900463ffffffff169050909192565b6000610c44338484612493565b6001905092915050565b600660009054906101000a900473ffffffffffffffffffffffffffffffffffffffff1681565b60005481565b60007fffffffffffffffffffffffffffffffffffffffffffffffffffffffffffffffff600260008673ffffffffffffffffffffffffffffffffffffffff1673ffffffffffffffffffffffffffffffffffffffff16815260200190815260200160002060003373ffffffffffffffffffffffffffffffffffffffff1673ffffffffffffffffffffffffffffffffffffffff1681526020019081526020016000205414610e2f57610dae82600260008773ffffffffffffffffffffffffffffffffffffffff1673ffffffffffffffffffffffffffffffffffffffff16815260200190815260200160002060003373ffffffffffffffffffffffffffffffffffffffff1673ffffffffffffffffffffffffffffffffffffffff1681526020019081526020016000205461214690919063ffffffff16565b600260008673ffffffffffffffffffffffffffffffffffffffff1673ffffffffffffffffffffffffffffffffffffffff16815260200190815260200160002060003373ffffffffffffffffffffffffffffffffffffffff1673ffffffffffffffffffffffffffffffffffffffff168152602001908152602001600020819055505b610e3a84848461257e565b600190509392505050565b600a5481565b7f6e71edae12b1b97f4d1f60370fef10105fa2faae0126114a169c64845d6126c960001b81565b601281565b60035481565b600560009054906101000a900473ffffffffffffffffffffffffffffffffffffffff1673ffffffffffffffffffffffffffffffffffffffff163373ffffffffffffffffffffffffffffffffffffffff1614610f0d576040517f08c379a0000000000000000000000000000000000000000000000000000000008152600401610f049061368e565b60405180910390fd5b81600660006101000a81548173ffffffffffffffffffffffffffffffffffffffff021916908373ffffffffffffffffffffffffffffffffffffffff16021790555080600760006101000a81548173ffffffffffffffffffffffffffffffffffffffff021916908373ffffffffffffffffffffffffffffffffffffffff1602179055505050565b600760009054906101000a900473ffffffffffffffffffffffffffffffffffffffff1681565b60006001600c5414611000576040517f08c379a0000000000000000000000000000000000000000000000000000000008152600401610ff790613281565b60405180910390fd5b6000600c81905550600080611013610bda565b50915091506000600660009054906101000a900473ffffffffffffffffffffffffffffffffffffffff1673ffffffffffffffffffffffffffffffffffffffff166370a08231306040518263ffffffff1660e01b81526004016110759190612fa2565b602060405180830381865afa158015611092573d6000803e3d6000fd5b505050506040513d601f19601f820116820180604052508101906110b69190613495565b90506000600760009054906101000a900473ffffffffffffffffffffffffffffffffffffffff1673ffffffffffffffffffffffffffffffffffffffff166370a08231306040518263ffffffff1660e01b81526004016111159190612fa2565b602060405180830381865afa158015611132573d6000803e3d6000fd5b505050506040513d601f19601f820116820180604052508101906111569190613495565b9050600061117d856dffffffffffffffffffffffffffff168461214690919063ffffffff16565b905060006111a4856dffffffffffffffffffffffffffff168461214690919063ffffffff16565b905060006111b28787612712565b90506000805490506000811415611206576111f26103e86111e46111df86886120d990919063ffffffff16565b6128de565b61214690919063ffffffff16565b985061120160006103e8612958565b61126d565b61126a886dffffffffffffffffffffffffffff1661122d83876120d990919063ffffffff16565b61123791906136dd565b886dffffffffffffffffffffffffffff1661125b84876120d990919063ffffffff16565b61126591906136dd565b612a72565b98505b600089116112b0576040517f08c379a00000000000000000000000000000000000000000000000000000000081526004016112a790613780565b60405180910390fd5b6112ba8a8a612958565b6112c686868a8a61219f565b811561133e576113376008600e9054906101000a90046dffffffffffffffffffffffffffff166dffffffffffffffffffffffffffff16600860009054906101000a90046dffffffffffffffffffffffffffff166dffffffffffffffffffffffffffff166120d990919063ffffffff16565b600b819055505b3373ffffffffffffffffffffffffffffffffffffffff167f4c209b5fc8ad50758f13e2e1088ba56a560dff690a1c6fef26394f4c03821c4f8585604051611386929190613112565b60405180910390a250505050505050506001600c81905550919050565b60016020528060005260406000206000915090505481565b600b5481565b60046020528060005260406000206000915090505481565b6000806001600c5414611421576040517f08c379a000000000000000000000000000000000000000000000000000000000815260040161141890613281565b60405180910390fd5b6000600c81905550600080611434610bda565b50915091506000600660009054906101000a900473ffffffffffffffffffffffffffffffffffffffff1690506000600760009054906101000a900473ffffffffffffffffffffffffffffffffffffffff16905060008273ffffffffffffffffffffffffffffffffffffffff166370a08231306040518263ffffffff1660e01b81526004016114c29190612fa2565b602060405180830381865afa1580156114df573d6000803e3d6000fd5b505050506040513d601f19601f820116820180604052508101906115039190613495565b905060008273ffffffffffffffffffffffffffffffffffffffff166370a08231306040518263ffffffff1660e01b81526004016115409190612fa2565b602060405180830381865afa15801561155d573d6000803e3d6000fd5b505050506040513d601f19601f820116820180604052508101906115819190613495565b90506000600160003073ffffffffffffffffffffffffffffffffffffffff1673ffffffffffffffffffffffffffffffffffffffff16815260200190815260200160002054905060006115d38888612712565b9050600080549050806115ef86856120d990919063ffffffff16565b6115f991906136dd565b9a508061160f85856120d990919063ffffffff16565b61161991906136dd565b995060008b11801561162b575060008a115b61166a576040517f08c379a000000000000000000000000000000000000000000000000000000000815260040161166190613812565b60405180910390fd5b6116743084612a8b565b61167f878d8d611f4f565b61168a868d8c611f4f565b8673ffffffffffffffffffffffffffffffffffffffff166370a08231306040518263ffffffff1660e01b81526004016116c39190612fa2565b602060405180830381865afa1580156116e0573d6000803e3d6000fd5b505050506040513d601f19601f820116820180604052508101906117049190613495565b94508573ffffffffffffffffffffffffffffffffffffffff166370a08231306040518263ffffffff1660e01b815260040161173f9190612fa2565b602060405180830381865afa15801561175c573d6000803e3d6000fd5b505050506040513d601f19601f820116820180604052508101906117809190613495565b935061178e85858b8b61219f565b8115611806576117ff6008600e9054906101000a90046dffffffffffffffffffffffffffff166dffffffffffffffffffffffffffff16600860009054906101000a90046dffffffffffffffffffffffffffff166dffffffffffffffffffffffffffff166120d990919063ffffffff16565b600b819055505b8b73ffffffffffffffffffffffffffffffffffffffff163373ffffffffffffffffffffffffffffffffffffffff167fdccd412f0b1252819cb1fd330b93224ca42612892bb3f4f789976e6d819364968d8d604051611865929190613112565b60405180910390a35050505050505050506001600c81905550915091565b6040518060400160405280600481526020017f554e492d0000000000000000000000000000000000000000000000000000000081525081565b60006118c933848461257e565b6001905092915050565b60095481565b6103e881565b6001600c5414611924576040517f08c379a000000000000000000000000000000000000000000000000000000000815260040161191b90613281565b60405180910390fd5b6000600c819055506000600660009054906101000a900473ffffffffffffffffffffffffffffffffffffffff1690506000600760009054906101000a900473ffffffffffffffffffffffffffffffffffffffff169050611a3c8284611a37600860009054906101000a90046dffffffffffffffffffffffffffff166dffffffffffffffffffffffffffff168673ffffffffffffffffffffffffffffffffffffffff166370a08231306040518263ffffffff1660e01b81526004016119e89190612fa2565b602060405180830381865afa158015611a05573d6000803e3d6000fd5b505050506040513d601f19601f82011682018060405250810190611a299190613495565b61214690919063ffffffff16565b611f4f565b611afe8184611af96008600e9054906101000a90046dffffffffffffffffffffffffffff166dffffffffffffffffffffffffffff168573ffffffffffffffffffffffffffffffffffffffff166370a08231306040518263ffffffff1660e01b8152600401611aaa9190612fa2565b602060405180830381865afa158015611ac7573d6000803e3d6000fd5b505050506040513d601f19601f82011682018060405250810190611aeb9190613495565b61214690919063ffffffff16565b611f4f565b50506001600c8190555050565b600560009054906101000a900473ffffffffffffffffffffffffffffffffffffffff1681565b42841015611b74576040517f08c379a0000000000000000000000000000000000000000000000000000000008152600401611b6b9061387e565b60405180910390fd5b60006003547f6e71edae12b1b97f4d1f60370fef10105fa2faae0126114a169c64845d6126c960001b898989600460008e73ffffffffffffffffffffffffffffffffffffffff1673ffffffffffffffffffffffffffffffffffffffff1681526020019081526020016000206000815480929190611bf09061389e565b919050558a604051602001611c0a969594939291906138e7565b60405160208183030381529060405280519060200120604051602001611c319291906139c0565b604051602081830303815290604052805190602001209050600060018286868660405160008152602001604052604051611c6e94939291906139f7565b6020604051602081039080840390855afa158015611c90573d6000803e3d6000fd5b505050602060405103519050600073ffffffffffffffffffffffffffffffffffffffff168173ffffffffffffffffffffffffffffffffffffffff1614158015611d0457508873ffffffffffffffffffffffffffffffffffffffff168173ffffffffffffffffffffffffffffffffffffffff16145b611d43576040517f08c379a0000000000000000000000000000000000000000000000000000000008152600401611d3a90613a88565b60405180910390fd5b611d4e898989612493565b505050505050505050565b6002602052816000526040600020602052806000526040600020600091509150505481565b6001600c5414611dc3576040517f08c379a0000000000000000000000000000000000000000000000000000000008152600401611dba90613281565b60405180910390fd5b6000600c81905550611f45600660009054906101000a900473ffffffffffffffffffffffffffffffffffffffff1673ffffffffffffffffffffffffffffffffffffffff166370a08231306040518263ffffffff1660e01b8152600401611e299190612fa2565b602060405180830381865afa158015611e46573d6000803e3d6000fd5b505050506040513d601f19601f82011682018060405250810190611e6a9190613495565b600760009054906101000a900473ffffffffffffffffffffffffffffffffffffffff1673ffffffffffffffffffffffffffffffffffffffff166370a08231306040518263ffffffff1660e01b8152600401611ec59190612fa2565b602060405180830381865afa158015611ee2573d6000803e3d6000fd5b505050506040513d601f19601f82011682018060405250810190611f069190613495565b600860009054906101000a90046dffffffffffffffffffffffffffff166008600e9054906101000a90046dffffffffffffffffffffffffffff1661219f565b6001600c81905550565b6000808473ffffffffffffffffffffffffffffffffffffffff166040518060400160405280601981526020017f7472616e7366657228616464726573732c75696e743235362900000000000000815250805190602001208585604051602401611fb9929190613aa8565b604051602081830303815290604052907bffffffffffffffffffffffffffffffffffffffffffffffffffffffff19166020820180517bffffffffffffffffffffffffffffffffffffffffffffffffffffffff83818316178352505050506040516120239190613b18565b6000604051808303816000865af19150503d8060008114612060576040519150601f19603f3d011682016040523d82523d6000602084013e612065565b606091505b509150915081801561209357506000815114806120925750808060200190518101906120919190613b5b565b5b5b6120d2576040517f08c379a00000000000000000000000000000000000000000000000000000000081526004016120c990613bd4565b60405180910390fd5b5050505050565b6000808214806121015750828283856120f29190613bf4565b9250826120ff91906136dd565b145b612140576040517f08c379a000000000000000000000000000000000000000000000000000000000815260040161213790613c9a565b60405180910390fd5b92915050565b600082828461215591906134f1565b9150811115612199576040517f08c379a000000000000000000000000000000000000000000000000000000000815260040161219090613d06565b60405180910390fd5b92915050565b6dffffffffffffffffffffffffffff801684111580156121cf57506dffffffffffffffffffffffffffff80168311155b61220e576040517f08c379a000000000000000000000000000000000000000000000000000000000815260040161220590613d72565b60405180910390fd5b6000640100000000426122219190613d92565b905060006008601c9054906101000a900463ffffffff16826122439190613dc3565b905060008163ffffffff1611801561226c57506000846dffffffffffffffffffffffffffff1614155b801561228957506000836dffffffffffffffffffffffffffff1614155b1561238f578063ffffffff166122ce856122a286612ba5565b7bffffffffffffffffffffffffffffffffffffffffffffffffffffffff16612bd990919063ffffffff16565b7bffffffffffffffffffffffffffffffffffffffffffffffffffffffff166122f69190613bf4565b600960008282546123079190613df7565b925050819055508063ffffffff1661234e8461232287612ba5565b7bffffffffffffffffffffffffffffffffffffffffffffffffffffffff16612bd990919063ffffffff16565b7bffffffffffffffffffffffffffffffffffffffffffffffffffffffff166123769190613bf4565b600a60008282546123879190613df7565b925050819055505b85600860006101000a8154816dffffffffffffffffffffffffffff02191690836dffffffffffffffffffffffffffff160217905550846008600e6101000a8154816dffffffffffffffffffffffffffff02191690836dffffffffffffffffffffffffffff160217905550816008601c6101000a81548163ffffffff021916908363ffffffff1602179055507f1c411e9a96e071241c2f21f7726b17ae89e3cab4c78be50e062b03a9fffbbad1600860009054906101000a90046dffffffffffffffffffffffffffff166008600e9054906101000a90046dffffffffffffffffffffffffffff16604051612483929190613e4d565b60405180910390a1505050505050565b80600260008573ffffffffffffffffffffffffffffffffffffffff1673ffffffffffffffffffffffffffffffffffffffff16815260200190815260200160002060008473ffffffffffffffffffffffffffffffffffffffff1673ffffffffffffffffffffffffffffffffffffffff168152602001908152602001600020819055508173ffffffffffffffffffffffffffffffffffffffff168373ffffffffffffffffffffffffffffffffffffffff167f8c5be1e5ebec7d5bd14f71427d1e84f3dd0314c0f7b2291e5b200ac8c7c3b925836040516125719190612fcc565b60405180910390a3505050565b6125d081600160008673ffffffffffffffffffffffffffffffffffffffff1673ffffffffffffffffffffffffffffffffffffffff1681526020019081526020016000205461214690919063ffffffff16565b600160008573ffffffffffffffffffffffffffffffffffffffff1673ffffffffffffffffffffffffffffffffffffffff1681526020019081526020016000208190555061266581600160008573ffffffffffffffffffffffffffffffffffffffff1673ffffffffffffffffffffffffffffffffffffffff16815260200190815260200160002054612bff90919063ffffffff16565b600160008473ffffffffffffffffffffffffffffffffffffffff1673ffffffffffffffffffffffffffffffffffffffff168152602001908152602001600020819055508173ffffffffffffffffffffffffffffffffffffffff168373ffffffffffffffffffffffffffffffffffffffff167fddf252ad1be2c89b69c2b068fc378daa952ba7f163c4a11628f55a4df523b3ef836040516127059190612fcc565b60405180910390a3505050565b600080600560009054906101000a900473ffffffffffffffffffffffffffffffffffffffff1673ffffffffffffffffffffffffffffffffffffffff1663017e7e586040518163ffffffff1660e01b8152600401602060405180830381865afa158015612782573d6000803e3d6000fd5b505050506040513d601f19601f820116820180604052508101906127a69190613e8b565b90506000600b549050600073ffffffffffffffffffffffffffffffffffffffff168273ffffffffffffffffffffffffffffffffffffffff16146128c457600081146128bf576000612828612823866dffffffffffffffffffffffffffff16886dffffffffffffffffffffffffffff166120d990919063ffffffff16565b6128de565b90506000612835836128de565b9050808211156128bc576000612868612857838561214690919063ffffffff16565b6000546120d990919063ffffffff16565b90506000612892836128846005876120d990919063ffffffff16565b612bff90919063ffffffff16565b9050600081836128a291906136dd565b905060008111156128b8576128b78782612958565b5b5050505b50505b6128d6565b600081146128d5576000600b819055505b5b505092915050565b6000600382111561294557819050600060016002846128fd91906136dd565b6129079190613df7565b90505b8181101561293f57809150600281828561292491906136dd565b61292e9190613df7565b61293891906136dd565b905061290a565b50612953565b6000821461295257600190505b5b919050565b61296d81600054612bff90919063ffffffff16565b6000819055506129c581600160008573ffffffffffffffffffffffffffffffffffffffff1673ffffffffffffffffffffffffffffffffffffffff16815260200190815260200160002054612bff90919063ffffffff16565b600160008473ffffffffffffffffffffffffffffffffffffffff1673ffffffffffffffffffffffffffffffffffffffff168152602001908152602001600020819055508173ffffffffffffffffffffffffffffffffffffffff16600073ffffffffffffffffffffffffffffffffffffffff167fddf252ad1be2c89b69c2b068fc378daa952ba7f163c4a11628f55a4df523b3ef83604051612a669190612fcc565b60405180910390a35050565b6000818310612a815781612a83565b825b905092915050565b612add81600160008573ffffffffffffffffffffffffffffffffffffffff1673ffffffffffffffffffffffffffffffffffffffff1681526020019081526020016000205461214690919063ffffffff16565b600160008473ffffffffffffffffffffffffffffffffffffffff1673ffffffffffffffffffffffffffffffffffffffff16815260200190815260200160002081905550612b358160005461214690919063ffffffff16565b600081905550600073ffffffffffffffffffffffffffffffffffffffff168273ffffffffffffffffffffffffffffffffffffffff167fddf252ad1be2c89b69c2b068fc378daa952ba7f163c4a11628f55a4df523b3ef83604051612b999190612fcc565b60405180910390a35050565b60006e010000000000000000000000000000826dffffffffffffffffffffffffffff16612bd29190613ee0565b9050919050565b6000816dffffffffffffffffffffffffffff1683612bf79190613f36565b905092915050565b6000828284612c0e9190613df7565b9150811015612c52576040517f08c379a0000000000000000000000000000000000000000000000000000000008152600401612c4990613fb3565b60405180910390fd5b92915050565b600080fd5b600080fd5b6000819050919050565b612c7581612c62565b8114612c8057600080fd5b50565b600081359050612c9281612c6c565b92915050565b600073ffffffffffffffffffffffffffffffffffffffff82169050919050565b6000612cc382612c98565b9050919050565b612cd381612cb8565b8114612cde57600080fd5b50565b600081359050612cf081612cca565b92915050565b600080fd5b600080fd5b600080fd5b60008083601f840112612d1b57612d1a612cf6565b5b8235905067ffffffffffffffff811115612d3857612d37612cfb565b5b602083019150836001820283011115612d5457612d53612d00565b5b9250929050565b600080600080600060808688031215612d7757612d76612c58565b5b6000612d8588828901612c83565b9550506020612d9688828901612c83565b9450506040612da788828901612ce1565b935050606086013567ffffffffffffffff811115612dc857612dc7612c5d565b5b612dd488828901612d05565b92509250509295509295909350565b600081519050919050565b600082825260208201905092915050565b60005b83811015612e1d578082015181840152602081019050612e02565b83811115612e2c576000848401525b50505050565b6000601f19601f8301169050919050565b6000612e4e82612de3565b612e588185612dee565b9350612e68818560208601612dff565b612e7181612e32565b840191505092915050565b60006020820190508181036000830152612e968184612e43565b905092915050565b60006dffffffffffffffffffffffffffff82169050919050565b612ec181612e9e565b82525050565b600063ffffffff82169050919050565b612ee081612ec7565b82525050565b6000606082019050612efb6000830186612eb8565b612f086020830185612eb8565b612f156040830184612ed7565b949350505050565b60008060408385031215612f3457612f33612c58565b5b6000612f4285828601612ce1565b9250506020612f5385828601612c83565b9150509250929050565b60008115159050919050565b612f7281612f5d565b82525050565b6000602082019050612f8d6000830184612f69565b92915050565b612f9c81612cb8565b82525050565b6000602082019050612fb76000830184612f93565b92915050565b612fc681612c62565b82525050565b6000602082019050612fe16000830184612fbd565b92915050565b60008060006060848603121561300057612fff612c58565b5b600061300e86828701612ce1565b935050602061301f86828701612ce1565b925050604061303086828701612c83565b9150509250925092565b6000819050919050565b61304d8161303a565b82525050565b60006020820190506130686000830184613044565b92915050565b600060ff82169050919050565b6130848161306e565b82525050565b600060208201905061309f600083018461307b565b92915050565b600080604083850312156130bc576130bb612c58565b5b60006130ca85828601612ce1565b92505060206130db85828601612ce1565b9150509250929050565b6000602082840312156130fb576130fa612c58565b5b600061310984828501612ce1565b91505092915050565b60006040820190506131276000830185612fbd565b6131346020830184612fbd565b9392505050565b6131448161306e565b811461314f57600080fd5b50565b6000813590506131618161313b565b92915050565b6131708161303a565b811461317b57600080fd5b50565b60008135905061318d81613167565b92915050565b600080600080600080600060e0888a0312156131b2576131b1612c58565b5b60006131c08a828b01612ce1565b97505060206131d18a828b01612ce1565b96505060406131e28a828b01612c83565b95505060606131f38a828b01612c83565b94505060806132048a828b01613152565b93505060a06132158a828b0161317e565b92505060c06132268a828b0161317e565b91505092959891949750929550565b7f54616b613a204c4f434b45440000000000000000000000000000000000000000600082015250565b600061326b600c83612dee565b915061327682613235565b602082019050919050565b6000602082019050818103600083015261329a8161325e565b9050919050565b7f54616b613a20494e53554646494349454e545f4f55545055545f414d4f554e54600082015250565b60006132d7602083612dee565b91506132e2826132a1565b602082019050919050565b60006020820190508181036000830152613306816132ca565b9050919050565b7f54616b613a20494e53554646494349454e545f4c495155494449545900000000600082015250565b6000613343601c83612dee565b915061334e8261330d565b602082019050919050565b6000602082019050818103600083015261337281613336565b9050919050565b7f54616b613a20494e56414c49445f544f00000000000000000000000000000000600082015250565b60006133af601083612dee565b91506133ba82613379565b602082019050919050565b600060208201905081810360008301526133de816133a2565b9050919050565b600082825260208201905092915050565b82818337600083830152505050565b600061341183856133e5565b935061341e8385846133f6565b61342783612e32565b840190509392505050565b60006080820190506134476000830188612f93565b6134546020830187612fbd565b6134616040830186612fbd565b8181036060830152613474818486613405565b90509695505050505050565b60008151905061348f81612c6c565b92915050565b6000602082840312156134ab576134aa612c58565b5b60006134b984828501613480565b91505092915050565b7f4e487b7100000000000000000000000000000000000000000000000000000000600052601160045260246000fd5b60006134fc82612c62565b915061350783612c62565b92508282101561351a576135196134c2565b5b828203905092915050565b7f54616b613a20494e53554646494349454e545f494e5055545f414d4f554e5400600082015250565b600061355b601f83612dee565b915061356682613525565b602082019050919050565b6000602082019050818103600083015261358a8161354e565b9050919050565b7f54616b613a204b00000000000000000000000000000000000000000000000000600082015250565b60006135c7600783612dee565b91506135d282613591565b602082019050919050565b600060208201905081810360008301526135f6816135ba565b9050919050565b60006080820190506136126000830187612fbd565b61361f6020830186612fbd565b61362c6040830185612fbd565b6136396060830184612fbd565b95945050505050565b7f54616b613a20464f5242494444454e0000000000000000000000000000000000600082015250565b6000613678600f83612dee565b915061368382613642565b602082019050919050565b600060208201905081810360008301526136a78161366b565b9050919050565b7f4e487b7100000000000000000000000000000000000000000000000000000000600052601260045260246000fd5b60006136e882612c62565b91506136f383612c62565b925082613703576137026136ae565b5b828204905092915050565b7f54616b613a20494e53554646494349454e545f4c49515549444954595f4d494e60008201527f5445440000000000000000000000000000000000000000000000000000000000602082015250565b600061376a602383612dee565b91506137758261370e565b604082019050919050565b600060208201905081810360008301526137998161375d565b9050919050565b7f54616b613a20494e53554646494349454e545f4c49515549444954595f42555260008201527f4e45440000000000000000000000000000000000000000000000000000000000602082015250565b60006137fc602383612dee565b9150613807826137a0565b604082019050919050565b6000602082019050818103600083015261382b816137ef565b9050919050565b7f54616b613a204558504952454400000000000000000000000000000000000000600082015250565b6000613868600d83612dee565b915061387382613832565b602082019050919050565b600060208201905081810360008301526138978161385b565b9050919050565b60006138a982612c62565b91507fffffffffffffffffffffffffffffffffffffffffffffffffffffffffffffffff8214156138dc576138db6134c2565b5b600182019050919050565b600060c0820190506138fc6000830189613044565b6139096020830188612f93565b6139166040830187612f93565b6139236060830186612fbd565b6139306080830185612fbd565b61393d60a0830184612fbd565b979650505050505050565b600081905092915050565b7f1901000000000000000000000000000000000000000000000000000000000000600082015250565b6000613989600283613948565b915061399482613953565b600282019050919050565b6000819050919050565b6139ba6139b58261303a565b61399f565b82525050565b60006139cb8261397c565b91506139d782856139a9565b6020820191506139e782846139a9565b6020820191508190509392505050565b6000608082019050613a0c6000830187613044565b613a19602083018661307b565b613a266040830185613044565b613a336060830184613044565b95945050505050565b7f54616b613a20494e56414c49445f5349474e4154555245000000000000000000600082015250565b6000613a72601783612dee565b9150613a7d82613a3c565b602082019050919050565b60006020820190508181036000830152613aa181613a65565b9050919050565b6000604082019050613abd6000830185612f93565b613aca6020830184612fbd565b9392505050565b600081519050919050565b600081905092915050565b6000613af282613ad1565b613afc8185613adc565b9350613b0c818560208601612dff565b80840191505092915050565b6000613b248284613ae7565b915081905092915050565b613b3881612f5d565b8114613b4357600080fd5b50565b600081519050613b5581613b2f565b92915050565b600060208284031215613b7157613b70612c58565b5b6000613b7f84828501613b46565b91505092915050565b7f54616b613a205452414e534645525f4641494c45440000000000000000000000600082015250565b6000613bbe601583612dee565b9150613bc982613b88565b602082019050919050565b60006020820190508181036000830152613bed81613bb1565b9050919050565b6000613bff82612c62565b9150613c0a83612c62565b9250817fffffffffffffffffffffffffffffffffffffffffffffffffffffffffffffffff0483118215151615613c4357613c426134c2565b5b828202905092915050565b7f64732d6d6174682d6d756c2d6f766572666c6f77000000000000000000000000600082015250565b6000613c84601483612dee565b9150613c8f82613c4e565b602082019050919050565b60006020820190508181036000830152613cb381613c77565b9050919050565b7f64732d6d6174682d7375622d756e646572666c6f770000000000000000000000600082015250565b6000613cf0601583612dee565b9150613cfb82613cba565b602082019050919050565b60006020820190508181036000830152613d1f81613ce3565b9050919050565b7f54616b613a204f564552464c4f57000000000000000000000000000000000000600082015250565b6000613d5c600e83612dee565b9150613d6782613d26565b602082019050919050565b60006020820190508181036000830152613d8b81613d4f565b9050919050565b6000613d9d82612c62565b9150613da883612c62565b925082613db857613db76136ae565b5b828206905092915050565b6000613dce82612ec7565b9150613dd983612ec7565b925082821015613dec57613deb6134c2565b5b828203905092915050565b6000613e0282612c62565b9150613e0d83612c62565b9250827fffffffffffffffffffffffffffffffffffffffffffffffffffffffffffffffff03821115613e4257613e416134c2565b5b828201905092915050565b6000604082019050613e626000830185612eb8565b613e6f6020830184612eb8565b9392505050565b600081519050613e8581612cca565b92915050565b600060208284031215613ea157613ea0612c58565b5b6000613eaf84828501613e76565b91505092915050565b60007bffffffffffffffffffffffffffffffffffffffffffffffffffffffff82169050919050565b6000613eeb82613eb8565b9150613ef683613eb8565b9250817bffffffffffffffffffffffffffffffffffffffffffffffffffffffff0483118215151615613f2b57613f2a6134c2565b5b828202905092915050565b6000613f4182613eb8565b9150613f4c83613eb8565b925082613f5c57613f5b6136ae565b5b828204905092915050565b7f64732d6d6174682d6164642d6f766572666c6f77000000000000000000000000600082015250565b6000613f9d601483612dee565b9150613fa882613f67565b602082019050919050565b60006020820190508181036000830152613fcc81613f90565b905091905056fea26469706673582212204641aa7662ecfd390ecbdc501af0fa1f9d2571c6fe7e8e14ab6425b24d964b3f64736f6c634300080b0033",
  "immutableReferences": {},
  "source": "// SPDX-License-Identifier: MIT \npragma solidity =0.8.11;\n\nimport './libraries/Math.sol';\nimport './libraries/UQ112x112.sol';\nimport './interfaces/ITakaCallee.sol';\nimport './interfaces/IERC20.sol';\nimport './interfaces/ITakaFactory.sol';\nimport './TakaLP.sol';\n\ncontract TakaPair is TakaLP {\n    using SafeMath  for uint;\n    using UQ112x112 for uint224; //for fractions and decimals\n\n    uint public constant MINIMUM_LIQUIDITY = 10**3;\n    bytes4 private constant SELECTOR = bytes4(keccak256(bytes('transfer(address,uint256)')));\n\n    address public factory;\n    address public tokenA;\n    address public tokenB;\n\n    uint112 private reserveA;\n    uint112 private reserveB;\n    uint32  private blockTimestampLast; \n\n    uint public priceA_CumulativeLast;\n    uint public priceB_CumulativeLast;\n    uint public kLast; // reserveA * reserveB, as of immediately after the most recent liquidity event\n\n    //to avoind re-entrancy exploits\n    uint private unlocked = 1;\n    modifier lock() {\n        require(unlocked == 1, 'Taka: LOCKED');\n        unlocked = 0;\n        _;\n        unlocked = 1;\n    }\n\n    function getReserves() public view returns (uint112 _reserveA, uint112 _reserveB, uint32 _blockTimestampLast) {\n        _reserveA = reserveA;\n        _reserveB = reserveB;\n        _blockTimestampLast = blockTimestampLast;\n    }\n\n    function _safeTransfer(address token, address to, uint value) private {\n        (bool success, bytes memory data) = token.call(abi.encodeWithSelector(SELECTOR, to, value));\n        require(success && (data.length == 0 || abi.decode(data, (bool))), 'Taka: TRANSFER_FAILED');\n    }\n\n    event Mint(address indexed sender, uint amountA, uint amountB);\n    event Burn(address indexed sender, uint amountA, uint amountB, address indexed to);\n    event Swap(\n        address indexed sender,\n        uint amountA_In,\n        uint amountB_IN,\n        uint amountA_Out,\n        uint amountB_Out,\n        address indexed to\n    );\n    event Sync(uint112 reserveA, uint112 reserveB);\n\n    constructor() {\n        factory = msg.sender;\n    }\n\n    // called once by the factory at time of deployment\n    function initialize(address _tokenA, address _tokenB) external {\n        require(msg.sender == factory, 'Taka: FORBIDDEN'); // sufficient check\n        tokenA = _tokenA;\n        tokenB = _tokenB;\n    }\n\n    // update reserves and, on the first call per block, price accumulators\n    function _update(uint balanceA, uint balanceB, uint112 _reserveA, uint112 _reserveB) private {\n        require(balanceA <= type(uint112).max && balanceB <= type(uint112).max, 'Taka: OVERFLOW');\n        uint32 blockTimestamp = uint32(block.timestamp % 2**32);\n        uint32 timeElapsed = blockTimestamp - blockTimestampLast; // overflow is desired\n        if (timeElapsed > 0 && _reserveA != 0 && _reserveB != 0) {\n            // * never overflows, and + overflow is desired\n            priceA_CumulativeLast += uint(UQ112x112.encode(_reserveB).uqdiv(_reserveA)) * timeElapsed;\n            priceB_CumulativeLast += uint(UQ112x112.encode(_reserveA).uqdiv(_reserveB)) * timeElapsed;\n        }\n        reserveA = uint112(balanceA);\n        reserveB = uint112(balanceB);\n        blockTimestampLast = blockTimestamp;\n        emit Sync(reserveA, reserveB);\n    }\n\n    // if fee is on, mint liquidity equivalent to 1/6th of the growth in sqrt(k)\n    function _mintFee(uint112 _reserveA, uint112 _reserveB) private returns (bool feeOn) {\n        address feeTo = ITakaFactory(factory).feeTo();\n        uint _kLast = kLast; // gas savings\n        if (feeTo != address(0)) {\n            if (_kLast != 0) {\n                uint rootK = Math.sqrt(uint(_reserveA).mul(_reserveB));\n                uint rootKLast = Math.sqrt(_kLast);\n                if (rootK > rootKLast) {\n                    uint numerator = totalSupply.mul(rootK.sub(rootKLast));\n                    uint denominator = rootK.mul(5).add(rootKLast);\n                    uint liquidity = numerator / denominator;\n                    if (liquidity > 0) _mint(feeTo, liquidity);\n                }\n            }\n        } else if (_kLast != 0) {\n            kLast = 0;\n        }\n    }\n\n    // this low-level function should be called from a contract which performs important safety checks\n    function mint(address to) external lock returns (uint liquidity) {\n        (uint112 _reserveA, uint112 _reserveB,) = getReserves(); // gas savings\n        uint balanceA = IERC20(tokenA).balanceOf(address(this));\n        uint balanceB = IERC20(tokenB).balanceOf(address(this));\n        uint amountA = balanceA.sub(_reserveA);\n        uint amountB = balanceB.sub(_reserveB);\n\n        bool feeOn = _mintFee(_reserveA, _reserveB);\n        uint _totalSupply = totalSupply; // gas savings, must be defined here since totalSupply can update in _mintFee\n        if (_totalSupply == 0) {\n            liquidity = Math.sqrt(amountA.mul(amountB)).sub(MINIMUM_LIQUIDITY);\n           _mint(address(0), MINIMUM_LIQUIDITY); // permanently lock the first MINIMUM_LIQUIDITY tokens\n        } else {\n            liquidity = Math.min(amountA.mul(_totalSupply) / _reserveA, amountB.mul(_totalSupply) / _reserveB);\n        }\n        require(liquidity > 0, 'Taka: INSUFFICIENT_LIQUIDITY_MINTED');\n        _mint(to, liquidity);\n\n        _update(balanceA, balanceB, _reserveA, _reserveB);\n        if (feeOn) kLast = uint(reserveA).mul(reserveB); // reserveA and reserveB are up-to-date\n        emit Mint(msg.sender, amountA, amountB);\n    }\n\n    // this low-level function should be called from a contract which performs important safety checks\n    function burn(address to) external lock returns (uint amountA, uint amountB) {\n        (uint112 _reserveA, uint112 _reserveB,) = getReserves(); // gas savings\n        address _tokenA = tokenA;                                // gas savings\n        address _tokenB = tokenB;                                // gas savings\n        uint balanceA = IERC20(_tokenA).balanceOf(address(this));\n        uint balanceB = IERC20(_tokenB).balanceOf(address(this));\n        uint liquidity = balanceOf[address(this)];\n\n        bool feeOn = _mintFee(_reserveA, _reserveB);\n        uint _totalSupply = totalSupply; // gas savings, must be defined here since totalSupply can update in _mintFee\n        amountA = liquidity.mul(balanceA) / _totalSupply; // using balances ensures pro-rata distribution\n        amountB = liquidity.mul(balanceB) / _totalSupply; // using balances ensures pro-rata distribution\n        require(amountA > 0 && amountB > 0, 'Taka: INSUFFICIENT_LIQUIDITY_BURNED');\n        _burn(address(this), liquidity);\n        _safeTransfer(_tokenA, to, amountA);\n        _safeTransfer(_tokenB, to, amountB);\n        balanceA = IERC20(_tokenA).balanceOf(address(this));\n        balanceB = IERC20(_tokenB).balanceOf(address(this));\n\n        _update(balanceA, balanceB, _reserveA, _reserveB);\n        if (feeOn) kLast = uint(reserveA).mul(reserveB); // reserveA and reserveB are up-to-date\n        emit Burn(msg.sender, amountA, amountB, to);\n    }\n\n    // this low-level function should be called from a contract which performs important safety checks\n    function swap(uint amountA_Out, uint amountB_Out, address to, bytes calldata data) external lock {\n        require(amountA_Out > 0 || amountB_Out > 0, 'Taka: INSUFFICIENT_OUTPUT_AMOUNT');\n        (uint112 _reserveA, uint112 _reserveB,) = getReserves(); // gas savings\n        require(amountA_Out < _reserveA && amountB_Out < _reserveB, 'Taka: INSUFFICIENT_LIQUIDITY');\n\n        uint balanceA;\n        uint balanceB;\n        { // scope for _token{0,1}, avoids stack too deep errors\n        address _tokenA = tokenA;\n        address _tokenB = tokenB;\n        require(to != _tokenA && to != _tokenB, 'Taka: INVALID_TO');\n        if (amountA_Out > 0) _safeTransfer(_tokenA, to, amountA_Out); // optimistically transfer tokens\n        if (amountB_Out > 0) _safeTransfer(_tokenB, to, amountB_Out); // optimistically transfer tokens\n        if (data.length > 0) ITakaCallee(to).TakaCall(msg.sender, amountA_Out, amountB_Out, data);\n        balanceA = IERC20(_tokenA).balanceOf(address(this));\n        balanceB = IERC20(_tokenB).balanceOf(address(this));\n        }\n        uint amountA_In = balanceA > _reserveA - amountA_Out ? balanceA - (_reserveA - amountA_Out) : 0;\n        uint amountB_IN = balanceB > _reserveB - amountB_Out ? balanceB - (_reserveB - amountB_Out) : 0;\n        require(amountA_In > 0 || amountB_IN > 0, 'Taka: INSUFFICIENT_INPUT_AMOUNT');\n        { // scope for reserve{0,1}Adjusted, avoids stack too deep errors\n        uint balanceAAdjusted = balanceA.mul(1000).sub(amountA_In.mul(3));\n        uint balanceBAdjusted = balanceB.mul(1000).sub(amountB_IN.mul(3));\n        require(balanceAAdjusted.mul(balanceBAdjusted) >= uint(_reserveA).mul(_reserveB).mul(1000**2), 'Taka: K');\n        }\n\n        _update(balanceA, balanceB, _reserveA, _reserveB);\n        emit Swap(msg.sender, amountA_In, amountB_IN, amountA_Out, amountB_Out, to);\n    }\n\n    // force balances to match reserves\n    function skim(address to) external lock {\n        address _tokenA = tokenA; // gas savings\n        address _tokenB = tokenB; // gas savings\n        _safeTransfer(_tokenA, to, IERC20(_tokenA).balanceOf(address(this)).sub(reserveA));\n        _safeTransfer(_tokenB, to, IERC20(_tokenB).balanceOf(address(this)).sub(reserveB));\n    }\n\n    // force reserves to match balances\n    function sync() external lock {\n        _update(IERC20(tokenA).balanceOf(address(this)), IERC20(tokenB).balanceOf(address(this)), reserveA, reserveB);\n    }\n\n    //overrides\n    \n}\n",
  "sourcePath": "/home/humbler/react_all/taka-pools/contracts/TakaPair.sol",
  "compiler": {
    "name": "solc",
    "version": "0.8.11+commit.d7f03943.Emscripten.clang"
  },
  "schemaVersion": "3.4.2",
  "updatedAt": "2022-01-31T13:07:08.864Z",
  "devdoc": {
    "kind": "dev",
    "methods": {},
    "version": 1
  },
  "userdoc": {
    "kind": "user",
    "methods": {},
    "version": 1
  }
}